{
    "contractName": "LiquidityMigration",
    "abi": [
        {
            "inputs": [
                {
                    "internalType": "address[]",
                    "name": "adapters_",
                    "type": "address[]"
                },
                {
                    "internalType": "address",
                    "name": "generic_",
                    "type": "address"
                },
                {
                    "internalType": "contract IStrategyProxyFactory",
                    "name": "factory_",
                    "type": "address"
                },
                {
                    "internalType": "address",
                    "name": "controller_",
                    "type": "address"
                },
                {
                    "internalType": "uint256",
                    "name": "_unlock",
                    "type": "uint256"
                },
                {
                    "internalType": "uint256",
                    "name": "_modify",
                    "type": "uint256"
                },
                {
                    "internalType": "address",
                    "name": "_owner",
                    "type": "address"
                }
            ],
            "stateMutability": "nonpayable",
            "type": "constructor"
        },
        {
            "anonymous": false,
            "inputs": [
                {
                    "indexed": false,
                    "internalType": "address",
                    "name": "adapter",
                    "type": "address"
                },
                {
                    "indexed": false,
                    "internalType": "address",
                    "name": "lp",
                    "type": "address"
                },
                {
                    "indexed": false,
                    "internalType": "address",
                    "name": "strategy",
                    "type": "address"
                },
                {
                    "indexed": false,
                    "internalType": "address",
                    "name": "account",
                    "type": "address"
                }
            ],
            "name": "Created",
            "type": "event"
        },
        {
            "anonymous": false,
            "inputs": [
                {
                    "indexed": false,
                    "internalType": "address",
                    "name": "adapter",
                    "type": "address"
                },
                {
                    "indexed": false,
                    "internalType": "address",
                    "name": "lp",
                    "type": "address"
                },
                {
                    "indexed": false,
                    "internalType": "address",
                    "name": "strategy",
                    "type": "address"
                },
                {
                    "indexed": false,
                    "internalType": "address",
                    "name": "account",
                    "type": "address"
                }
            ],
            "name": "Migrated",
            "type": "event"
        },
        {
            "anonymous": false,
            "inputs": [
                {
                    "indexed": true,
                    "internalType": "address",
                    "name": "previousOwner",
                    "type": "address"
                },
                {
                    "indexed": true,
                    "internalType": "address",
                    "name": "newOwner",
                    "type": "address"
                }
            ],
            "name": "OwnershipTransferred",
            "type": "event"
        },
        {
            "anonymous": false,
            "inputs": [
                {
                    "indexed": false,
                    "internalType": "address",
                    "name": "adapter",
                    "type": "address"
                },
                {
                    "indexed": false,
                    "internalType": "address",
                    "name": "strategy",
                    "type": "address"
                },
                {
                    "indexed": false,
                    "internalType": "uint256",
                    "name": "amount",
                    "type": "uint256"
                },
                {
                    "indexed": false,
                    "internalType": "address",
                    "name": "account",
                    "type": "address"
                }
            ],
            "name": "Staked",
            "type": "event"
        },
        {
            "inputs": [
                {
                    "internalType": "address",
                    "name": "",
                    "type": "address"
                }
            ],
            "name": "adapters",
            "outputs": [
                {
                    "internalType": "bool",
                    "name": "",
                    "type": "bool"
                }
            ],
            "stateMutability": "view",
            "type": "function"
        },
        {
            "inputs": [
                {
                    "internalType": "address",
                    "name": "_adapter",
                    "type": "address"
                }
            ],
            "name": "addAdapter",
            "outputs": [],
            "stateMutability": "nonpayable",
            "type": "function"
        },
        {
            "inputs": [
                {
                    "internalType": "address[]",
                    "name": "_lp",
                    "type": "address[]"
                },
                {
                    "internalType": "uint256[]",
                    "name": "_amount",
                    "type": "uint256[]"
                },
                {
                    "internalType": "address[]",
                    "name": "_adapter",
                    "type": "address[]"
                },
                {
                    "internalType": "address[]",
                    "name": "_exchange",
                    "type": "address[]"
                },
                {
                    "internalType": "uint256[]",
                    "name": "_minAmountOut",
                    "type": "uint256[]"
                },
                {
                    "internalType": "uint256",
                    "name": "_deadline",
                    "type": "uint256"
                }
            ],
            "name": "batchBuyAndStake",
            "outputs": [],
            "stateMutability": "payable",
            "type": "function"
        },
        {
            "inputs": [
                {
                    "internalType": "address[]",
                    "name": "_user",
                    "type": "address[]"
                },
                {
                    "internalType": "address[]",
                    "name": "_lp",
                    "type": "address[]"
                },
                {
                    "internalType": "address[]",
                    "name": "_adapter",
                    "type": "address[]"
                },
                {
                    "internalType": "contract IStrategy[]",
                    "name": "_strategy",
                    "type": "address[]"
                }
            ],
            "name": "batchMigrate",
            "outputs": [],
            "stateMutability": "nonpayable",
            "type": "function"
        },
        {
            "inputs": [
                {
                    "internalType": "address[]",
                    "name": "_lp",
                    "type": "address[]"
                },
                {
                    "internalType": "address[]",
                    "name": "_adapter",
                    "type": "address[]"
                },
                {
                    "internalType": "contract IStrategy[]",
                    "name": "_strategy",
                    "type": "address[]"
                }
            ],
            "name": "batchMigrate",
            "outputs": [],
            "stateMutability": "nonpayable",
            "type": "function"
        },
        {
            "inputs": [
                {
                    "internalType": "address[]",
                    "name": "_lp",
                    "type": "address[]"
                },
                {
                    "internalType": "uint256[]",
                    "name": "_amount",
                    "type": "uint256[]"
                },
                {
                    "internalType": "address[]",
                    "name": "_adapter",
                    "type": "address[]"
                }
            ],
            "name": "batchStake",
            "outputs": [],
            "stateMutability": "nonpayable",
            "type": "function"
        },
        {
            "inputs": [
                {
                    "internalType": "address",
                    "name": "_lp",
                    "type": "address"
                },
                {
                    "internalType": "address",
                    "name": "_adapter",
                    "type": "address"
                },
                {
                    "internalType": "address",
                    "name": "_exchange",
                    "type": "address"
                },
                {
                    "internalType": "uint256",
                    "name": "_minAmountOut",
                    "type": "uint256"
                },
                {
                    "internalType": "uint256",
                    "name": "_deadline",
                    "type": "uint256"
                }
            ],
            "name": "buyAndStake",
            "outputs": [],
            "stateMutability": "payable",
            "type": "function"
        },
        {
            "inputs": [],
            "name": "controller",
            "outputs": [
                {
                    "internalType": "address",
                    "name": "",
                    "type": "address"
                }
            ],
            "stateMutability": "view",
            "type": "function"
        },
        {
            "inputs": [
                {
                    "internalType": "address",
                    "name": "_lp",
                    "type": "address"
                },
                {
                    "internalType": "address",
                    "name": "_adapter",
                    "type": "address"
                },
                {
                    "internalType": "bytes",
                    "name": "data",
                    "type": "bytes"
                }
            ],
            "name": "createStrategy",
            "outputs": [],
            "stateMutability": "nonpayable",
            "type": "function"
        },
        {
            "inputs": [],
            "name": "factory",
            "outputs": [
                {
                    "internalType": "contract IStrategyProxyFactory",
                    "name": "",
                    "type": "address"
                }
            ],
            "stateMutability": "view",
            "type": "function"
        },
        {
            "inputs": [],
            "name": "generic",
            "outputs": [
                {
                    "internalType": "address",
                    "name": "",
                    "type": "address"
                }
            ],
            "stateMutability": "view",
            "type": "function"
        },
        {
            "inputs": [
                {
                    "internalType": "address",
                    "name": "_account",
                    "type": "address"
                },
                {
                    "internalType": "address",
                    "name": "_lp",
                    "type": "address"
                }
            ],
            "name": "hasStaked",
            "outputs": [
                {
                    "internalType": "bool",
                    "name": "",
                    "type": "bool"
                }
            ],
            "stateMutability": "view",
            "type": "function"
        },
        {
            "inputs": [
                {
                    "internalType": "address",
                    "name": "_lp",
                    "type": "address"
                },
                {
                    "internalType": "address",
                    "name": "_adapter",
                    "type": "address"
                },
                {
                    "internalType": "contract IStrategy",
                    "name": "_strategy",
                    "type": "address"
                }
            ],
            "name": "migrate",
            "outputs": [],
            "stateMutability": "nonpayable",
            "type": "function"
        },
        {
            "inputs": [
                {
                    "internalType": "address",
                    "name": "_user",
                    "type": "address"
                },
                {
                    "internalType": "address",
                    "name": "_lp",
                    "type": "address"
                },
                {
                    "internalType": "address",
                    "name": "_adapter",
                    "type": "address"
                },
                {
                    "internalType": "contract IStrategy",
                    "name": "_strategy",
                    "type": "address"
                }
            ],
            "name": "migrate",
            "outputs": [],
            "stateMutability": "nonpayable",
            "type": "function"
        },
        {
            "inputs": [],
            "name": "modify",
            "outputs": [
                {
                    "internalType": "uint256",
                    "name": "",
                    "type": "uint256"
                }
            ],
            "stateMutability": "view",
            "type": "function"
        },
        {
            "inputs": [],
            "name": "owner",
            "outputs": [
                {
                    "internalType": "address",
                    "name": "",
                    "type": "address"
                }
            ],
            "stateMutability": "view",
            "type": "function"
        },
        {
            "inputs": [
                {
                    "internalType": "address",
                    "name": "_adapter",
                    "type": "address"
                }
            ],
            "name": "removeAdapter",
            "outputs": [],
            "stateMutability": "nonpayable",
            "type": "function"
        },
        {
            "inputs": [],
            "name": "renounceOwnership",
            "outputs": [],
            "stateMutability": "nonpayable",
            "type": "function"
        },
        {
            "inputs": [
                {
                    "internalType": "address",
                    "name": "_lp",
                    "type": "address"
                },
                {
                    "internalType": "uint256",
                    "name": "_amount",
                    "type": "uint256"
                },
                {
                    "internalType": "address",
                    "name": "_adapter",
                    "type": "address"
                }
            ],
            "name": "stake",
            "outputs": [],
            "stateMutability": "nonpayable",
            "type": "function"
        },
        {
            "inputs": [
                {
                    "internalType": "address",
                    "name": "",
                    "type": "address"
                },
                {
                    "internalType": "address",
                    "name": "",
                    "type": "address"
                }
            ],
            "name": "staked",
            "outputs": [
                {
                    "internalType": "uint256",
                    "name": "",
                    "type": "uint256"
                }
            ],
            "stateMutability": "view",
            "type": "function"
        },
        {
            "inputs": [
                {
                    "internalType": "address",
                    "name": "newOwner",
                    "type": "address"
                }
            ],
            "name": "transferOwnership",
            "outputs": [],
            "stateMutability": "nonpayable",
            "type": "function"
        },
        {
            "inputs": [],
            "name": "unlocked",
            "outputs": [
                {
                    "internalType": "uint256",
                    "name": "",
                    "type": "uint256"
                }
            ],
            "stateMutability": "view",
            "type": "function"
        },
        {
            "inputs": [
                {
                    "internalType": "address",
                    "name": "_controller",
                    "type": "address"
                }
            ],
            "name": "updateController",
            "outputs": [],
            "stateMutability": "nonpayable",
            "type": "function"
        },
        {
            "inputs": [
                {
                    "internalType": "address",
                    "name": "_generic",
                    "type": "address"
                }
            ],
            "name": "updateGeneric",
            "outputs": [],
            "stateMutability": "nonpayable",
            "type": "function"
        },
        {
            "inputs": [
                {
                    "internalType": "uint256",
                    "name": "unlock_",
                    "type": "uint256"
                }
            ],
            "name": "updateUnlock",
            "outputs": [],
            "stateMutability": "nonpayable",
            "type": "function"
        }
    ],
    "bytecode": "60806040523480156200001157600080fd5b50604051620035f2380380620035f28339810160408190526200003491620001ce565b8282824283116200008b5760405162461bcd60e51b815260206004820152601460248201527f54696d656c6f636b236e6f742067726561746572000000000000000000000000604482015260640160405180910390fd5b60018390556002829055620000a08162000166565b50505060005b87518110156200011e576001600660008a8481518110620000d757634e487b7160e01b600052603260045260246000fd5b6020908102919091018101516001600160a01b03168252810191909152604001600020805460ff191691151591909117905580620001158162000305565b915050620000a6565b5050600380546001600160a01b039687166001600160a01b03199182161790915560058054958716958216959095179094555050600480549190931691161790555062000343565b600080546001600160a01b0319166001600160a01b03831690811782556040519091907f8be0079c531659141344cd1fd0a4f28419497f9722a3daafe3b4186f6b6457e0908290a350565b80516001600160a01b0381168114620001c957600080fd5b919050565b600080600080600080600060e0888a031215620001e9578283fd5b87516001600160401b038082111562000200578485fd5b818a0191508a601f83011262000214578485fd5b81516020828211156200022b576200022b6200032d565b808202604051601f19603f830116810181811086821117156200025257620002526200032d565b806040525080945083815282810194508286018f848489010111156200027657898afd5b8996505b84871015620002a3576200028e81620001b1565b8652600196909601959483019483016200027a565b509b50620002b590508c8201620001b1565b995050505050620002c960408901620001b1565b9450620002d960608901620001b1565b93506080880151925060a08801519150620002f760c08901620001b1565b905092959891949750929550565b60006000198214156200032657634e487b7160e01b81526011600452602481fd5b5060010190565b634e487b7160e01b600052604160045260246000fd5b61329f80620003536000396000f3fe6080604052600436106101665760003560e01c80638da5cb5b116100d1578063e30ac74e1161008a578063f620253811610064578063f62025381461046a578063f77c47911461048a578063f8fd1bea146104aa578063fea080bc146104bd57610166565b8063e30ac74e146103fa578063e5711ffc1461041a578063f2fde38b1461044a57610166565b80638da5cb5b1461032457806390eb830c14610342578063c45a015514610362578063c6d3afc914610382578063c9d658f0146103ba578063cb475dbf146103da57610166565b8063585cd34b11610123578063585cd34b1461025d57806360d54d411461027d57806364cf33b81461029d5780636a5e2650146102c1578063715018a6146102d757806387ee7d10146102ec57610166565b806306cb5b661461016b57806312b321561461018d5780632912f294146101ea578063294091cd146101fd5780632afc545b1461021d57806341073ab61461023d575b600080fd5b34801561017757600080fd5b5061018b610186366004612518565b6104dd565b005b34801561019957600080fd5b506101d56101a83660046126fb565b6001600160a01b039182166000908152600760209081526040808320939094168252919091522054151590565b60405190151581526020015b60405180910390f35b61018b6101f836600461278e565b6105ac565b34801561020957600080fd5b5061018b6102183660046128be565b6105c1565b34801561022957600080fd5b5061018b6102383660046128f4565b6105e6565b34801561024957600080fd5b5061018b6102583660046127e8565b610722565b34801561026957600080fd5b5061018b610278366004612518565b6108b7565b34801561028957600080fd5b5061018b610298366004612518565b610983565b3480156102a957600080fd5b506102b360025481565b6040519081526020016101e1565b3480156102cd57600080fd5b506102b360015481565b3480156102e357600080fd5b5061018b610a53565b3480156102f857600080fd5b5060035461030c906001600160a01b031681565b6040516001600160a01b0390911681526020016101e1565b34801561033057600080fd5b506000546001600160a01b031661030c565b34801561034e57600080fd5b5061018b61035d366004612a1e565b610ac7565b34801561036e57600080fd5b5060055461030c906001600160a01b031681565b34801561038e57600080fd5b506102b361039d3660046126fb565b600760209081526000928352604080842090915290825290205481565b3480156103c657600080fd5b5061018b6103d5366004612874565b610bad565b3480156103e657600080fd5b5061018b6103f5366004612518565b610bdb565b34801561040657600080fd5b5061018b610415366004612733565b610c9e565b34801561042657600080fd5b506101d5610435366004612518565b60066020526000908152604090205460ff1681565b34801561045657600080fd5b5061018b610465366004612518565b610cf6565b34801561047657600080fd5b5061018b61048536600461299b565b610de0565b34801561049657600080fd5b5060045461030c906001600160a01b031681565b61018b6104b8366004612a75565b610e60565b3480156104c957600080fd5b5061018b6104d8366004612c37565b611081565b6000546001600160a01b031633146105105760405162461bcd60e51b815260040161050790612fcd565b60405180910390fd5b6004546001600160a01b038281169116141561058a5760405162461bcd60e51b815260206004820152603360248201527f4c69717569646974794d6967726174696f6e23757064617465436f6e74726f6c6044820152726c65723a20616c72656164792065786973747360681b6064820152608401610507565b600480546001600160a01b0319166001600160a01b0392909216919091179055565b6105ba85348686868661110c565b5050505050565b6105d66001600160a01b03841633308561129a565b6105e1838383611305565b505050565b6000546001600160a01b031633146106105760405162461bcd60e51b815260040161050790612fcd565b6001544210156106325760405162461bcd60e51b815260040161050790612f3c565b825184511461064057600080fd5b815183511461064e57600080fd5b805182511461065c57600080fd5b60005b83518110156105ba5761071085828151811061068b57634e487b7160e01b600052603260045260246000fd5b60200260200101518583815181106106b357634e487b7160e01b600052603260045260246000fd5b60200260200101518584815181106106db57634e487b7160e01b600052603260045260246000fd5b602002602001015185858151811061070357634e487b7160e01b600052603260045260246000fd5b6020026020010151611469565b8061071a816131da565b91505061065f565b6001600160a01b038316600090815260066020526040902054839060ff1661075c5760405162461bcd60e51b8152600401610507906130a3565b604051633af32abf60e01b81526001600160a01b03808716600483015285918791831690633af32abf9060240160206040518083038186803b1580156107a157600080fd5b505afa1580156107b5573d6000803e3d6000fd5b505050506040513d601f19601f820116820180604052508101906107d99190612c1b565b6107f55760405162461bcd60e51b815260040161050790613056565b600061080385870187612550565b50505093505050506108168789836119f4565b600061085787878080601f016020809104026020016040519081016040528093929190818152602001838380828437600092019190915250611c5e92505050565b604080516001600160a01b038b811682528c8116602083015283168183015233606082015290519192507f259b30ca39885c6d801a0b5dbc988640f3c25e2f37531fe138c5c5af8955d41b919081900360800190a1505050505050505050565b6000546001600160a01b031633146108e15760405162461bcd60e51b815260040161050790612fcd565b6001600160a01b03811660009081526006602052604090205460ff166109625760405162461bcd60e51b815260206004820152603060248201527f4c69717569646974794d6967726174696f6e237570646174654164617074657260448201526f0e88191bd95cc81b9bdd08195e1a5cdd60821b6064820152608401610507565b6001600160a01b03166000908152600660205260409020805460ff19169055565b6000546001600160a01b031633146109ad5760405162461bcd60e51b815260040161050790612fcd565b6001600160a01b03811660009081526006602052604090205460ff1615610a2f5760405162461bcd60e51b815260206004820152603060248201527f4c69717569646974794d6967726174696f6e237570646174654164617074657260448201526f3a20616c72656164792065786973747360801b6064820152608401610507565b6001600160a01b03166000908152600660205260409020805460ff19166001179055565b6000546001600160a01b03163314610a7d5760405162461bcd60e51b815260040161050790612fcd565b600080546040516001600160a01b03909116907f8be0079c531659141344cd1fd0a4f28419497f9722a3daafe3b4186f6b6457e0908390a3600080546001600160a01b0319169055565b8151835114610ae85760405162461bcd60e51b815260040161050790612f7f565b8051825114610b095760405162461bcd60e51b815260040161050790612f7f565b60005b8351811015610ba757610b95848281518110610b3857634e487b7160e01b600052603260045260246000fd5b6020026020010151848381518110610b6057634e487b7160e01b600052603260045260246000fd5b6020026020010151848481518110610b8857634e487b7160e01b600052603260045260246000fd5b60200260200101516105c1565b80610b9f816131da565b915050610b0c565b50505050565b600154421015610bcf5760405162461bcd60e51b815260040161050790612f3c565b6105e133848484611469565b6000546001600160a01b03163314610c055760405162461bcd60e51b815260040161050790612fcd565b6003546001600160a01b0382811691161415610c7c5760405162461bcd60e51b815260206004820152603060248201527f4c69717569646974794d6967726174696f6e2375706461746547656e6572696360448201526f3a20616c72656164792065786973747360801b6064820152608401610507565b600380546001600160a01b0319166001600160a01b0392909216919091179055565b6000546001600160a01b03163314610cc85760405162461bcd60e51b815260040161050790612fcd565b600154421015610cea5760405162461bcd60e51b815260040161050790612f3c565b610ba784848484611469565b6000546001600160a01b03163314610d205760405162461bcd60e51b815260040161050790612fcd565b6001600160a01b038116610d855760405162461bcd60e51b815260206004820152602660248201527f4f776e61626c653a206e6577206f776e657220697320746865207a65726f206160448201526564647265737360d01b6064820152608401610507565b600080546040516001600160a01b03808516939216917f8be0079c531659141344cd1fd0a4f28419497f9722a3daafe3b4186f6b6457e091a3600080546001600160a01b0319166001600160a01b0392909216919091179055565b600154421015610e025760405162461bcd60e51b815260040161050790612f3c565b8151835114610e1057600080fd5b8051825114610e1e57600080fd5b60005b8351811015610ba757610e4e338583815181106106b357634e487b7160e01b600052603260045260246000fd5b80610e58816131da565b915050610e21565b8551855114610e815760405162461bcd60e51b815260040161050790613002565b8551845114610ea25760405162461bcd60e51b815260040161050790613002565b8551835114610ec35760405162461bcd60e51b815260040161050790613002565b8551825114610ee45760405162461bcd60e51b815260040161050790613002565b6000805b875181101561100957868181518110610f1157634e487b7160e01b600052603260045260246000fd5b602002602001015182610f249190613168565b9150610ff7888281518110610f4957634e487b7160e01b600052603260045260246000fd5b6020026020010151888381518110610f7157634e487b7160e01b600052603260045260246000fd5b6020026020010151888481518110610f9957634e487b7160e01b600052603260045260246000fd5b6020026020010151888581518110610fc157634e487b7160e01b600052603260045260246000fd5b6020026020010151888681518110610fe957634e487b7160e01b600052603260045260246000fd5b60200260200101518861110c565b80611001816131da565b915050610ee8565b508034146110785760405162461bcd60e51b815260206004820152603660248201527f4c69717569646974794d6967726174696f6e236261746368427579416e645374604482015275616b653a20696e636f727265637420616d6f756e747360501b6064820152608401610507565b50505050505050565b6000546001600160a01b031633146110ab5760405162461bcd60e51b815260040161050790612fcd565b60025442106111075760405162461bcd60e51b815260206004820152602260248201527f54696d656c6f636b236f6e6c794d6f646966793a2063616e6e6f74206d6f6469604482015261667960f01b6064820152608401610507565b600155565b6040516370a0823160e01b81523060048201526000906001600160a01b038816906370a082319060240160206040518083038186803b15801561114e57600080fd5b505afa158015611162573d6000803e3d6000fd5b505050506040513d601f19601f820116820180604052508101906111869190612c4f565b6040516354ea127160e11b81526001600160a01b038981166004830152868116602483015260448201869052606482018590529192509086169063a9d424e29088906084016000604051808303818588803b1580156111e457600080fd5b505af11580156111f8573d6000803e3d6000fd5b50506040516370a0823160e01b8152306004820152600093508492506001600160a01b038b1691506370a082319060240160206040518083038186803b15801561124157600080fd5b505afa158015611255573d6000803e3d6000fd5b505050506040513d601f19601f820116820180604052508101906112799190612c4f565b6112839190613180565b9050611290888288611305565b5050505050505050565b6040516001600160a01b0380851660248301528316604482015260648101829052610ba79085906323b872dd60e01b906084015b60408051601f198184030181529190526020810180516001600160e01b03166001600160e01b031990931692909217909152611d2b565b6001600160a01b038116600090815260066020526040902054819060ff1661133f5760405162461bcd60e51b8152600401610507906130a3565b604051633af32abf60e01b81526001600160a01b03808616600483015283918691831690633af32abf9060240160206040518083038186803b15801561138457600080fd5b505afa158015611398573d6000803e3d6000fd5b505050506040513d601f19601f820116820180604052508101906113bc9190612c1b565b6113d85760405162461bcd60e51b815260040161050790613056565b3360009081526007602090815260408083206001600160a01b038a1684529091528120805487929061140b908490613168565b9091555050604080516001600160a01b038087168252881660208201529081018690523360608201527f751f7c1e1facd3028e03b5a9e2e34e63fb2f229f99b85eec19864b950ac671d09060800160405180910390a1505050505050565b6001600160a01b038216600090815260066020526040902054829060ff166114a35760405162461bcd60e51b8152600401610507906130a3565b604051633af32abf60e01b81526001600160a01b03808616600483015284918691831690633af32abf9060240160206040518083038186803b1580156114e857600080fd5b505afa1580156114fc573d6000803e3d6000fd5b505050506040513d601f19601f820116820180604052508101906115209190612c1b565b61153c5760405162461bcd60e51b815260040161050790613056565b6004805460405163cbca47db60e01b81526001600160a01b038781169382019390935291169063cbca47db9060240160206040518083038186803b15801561158357600080fd5b505afa158015611597573d6000803e3d6000fd5b505050506040513d601f19601f820116820180604052508101906115bb9190612c1b565b61161e5760405162461bcd60e51b815260206004820152602e60248201527f4c69717569646974794d6967726174696f6e235f6d6967726174653a206e6f7460448201526d20656e736f20737472617465677960901b6064820152608401610507565b6001600160a01b038088166000908152600760209081526040808320938a1683529290522054806116a15760405162461bcd60e51b815260206004820152602760248201527f4c69717569646974794d6967726174696f6e235f6d6967726174653a206e6f74604482015266081cdd185ad95960ca1b6064820152608401610507565b6001600160a01b0380891660009081526007602090815260408083208b851680855292528220919091556003546116d9921683611dfd565b6040516370a0823160e01b81523060048201526000906001600160a01b038716906370a082319060240160206040518083038186803b15801561171b57600080fd5b505afa15801561172f573d6000803e3d6000fd5b505050506040513d601f19601f820116820180604052508101906117539190612c4f565b60035460405163a9b2986160e01b81526001600160a01b03918216600482015288821660248201528a82166044820152606481018590529192506000919089169063a9b298619060840160006040518083038186803b1580156117b557600080fd5b505afa1580156117c9573d6000803e3d6000fd5b505050506040513d6000823e601f3d908101601f191682016040526117f19190810190612b48565b6040516020016118019190612e72565b60408051808303601f19018152908290526004805460035463e9c670ad60e01b85529294506001600160a01b039081169363e9c670ad9361184d938d9390911691600091889101612eec565b600060405180830381600087803b15801561186757600080fd5b505af115801561187b573d6000803e3d6000fd5b50506040516370a0823160e01b8152306004820152600092506001600160a01b038a1691506370a082319060240160206040518083038186803b1580156118c157600080fd5b505afa1580156118d5573d6000803e3d6000fd5b505050506040513d601f19601f820116820180604052508101906118f99190612c4f565b90506001600160a01b03881663a9059cbb8c6119158685613180565b6040516001600160e01b031960e085901b1681526001600160a01b0390921660048301526024820152604401602060405180830381600087803b15801561195b57600080fd5b505af115801561196f573d6000803e3d6000fd5b505050506040513d601f19601f820116820180604052508101906119939190612c1b565b50604080516001600160a01b038b811682528c811660208301528a8116828401528d16606082015290517f415f0af8f5b6deaac4fa61971b0153fa777da7c922b5f0031947b017bd0658d19181900360800190a15050505050505050505050565b805160005b8251811015611b7c57846001600160a01b0316637863295a85858481518110611a3257634e487b7160e01b600052603260045260246000fd5b6020908102919091010151516040516001600160e01b031960e085901b1681526001600160a01b0392831660048201529116602482015260440160206040518083038186803b158015611a8457600080fd5b505afa158015611a98573d6000803e3d6000fd5b505050506040513d601f19601f82011682018060405250810190611abc9190612c1b565b611b6a57828181518110611ae057634e487b7160e01b600052603260045260246000fd5b60200260200101516020015160001415611b065781611afe816131c3565b925050611b6a565b60405162461bcd60e51b815260206004820152603360248201527f4c69717569646974794d6967726174696f6e23637265617465537472617465676044820152720f27440d2dcc6dee4e4cac6e840d8cadccee8d606b1b6064820152608401610507565b80611b74816131da565b9150506119f9565b506040516306d44c3760e31b81526001600160a01b0384811660048301528516906336a261b89060240160206040518083038186803b158015611bbe57600080fd5b505afa158015611bd2573d6000803e3d6000fd5b505050506040513d601f19601f82011682018060405250810190611bf69190612c4f565b8114610ba75760405162461bcd60e51b815260206004820152603160248201527f4c69717569646974794d6967726174696f6e23637265617465537472617465676044820152701e4e88191bd95cc81b9bdd08195e1a5cdd607a1b6064820152608401610507565b60008060008060008060008088806020019051810190611c7e919061262d565b600554604051636f17d7ff60e11b8152979e50959c50939a509198509650945092506001600160a01b03169063de2faffe90611cca908a908a908a908a908a908a908a90600401612cf2565b602060405180830381600087803b158015611ce457600080fd5b505af1158015611cf8573d6000803e3d6000fd5b505050506040513d601f19601f82011682018060405250810190611d1c9190612534565b9750505050505050505b919050565b6000611d80826040518060400160405280602081526020017f5361666545524332303a206c6f772d6c6576656c2063616c6c206661696c6564815250856001600160a01b0316611e2d9092919063ffffffff16565b8051909150156105e15780806020019051810190611d9e9190612c1b565b6105e15760405162461bcd60e51b815260206004820152602a60248201527f5361666545524332303a204552433230206f7065726174696f6e20646964206e6044820152691bdd081cdd58d8d9595960b21b6064820152608401610507565b6040516001600160a01b0383166024820152604481018290526105e190849063a9059cbb60e01b906064016112ce565b6060611e3c8484600085611e46565b90505b9392505050565b606082471015611ea75760405162461bcd60e51b815260206004820152602660248201527f416464726573733a20696e73756666696369656e742062616c616e636520666f6044820152651c8818d85b1b60d21b6064820152608401610507565b843b611ef55760405162461bcd60e51b815260206004820152601d60248201527f416464726573733a2063616c6c20746f206e6f6e2d636f6e74726163740000006044820152606401610507565b600080866001600160a01b03168587604051611f119190612cd6565b60006040518083038185875af1925050503d8060008114611f4e576040519150601f19603f3d011682016040523d82523d6000602084013e611f53565b606091505b5091509150611f63828286611f6e565b979650505050505050565b60608315611f7d575081611e3f565b825115611f8d5782518084602001fd5b8160405162461bcd60e51b81526004016105079190612f29565b8035611d2681613221565b8051611d2681613221565b600082601f830112611fcd578081fd5b81356020611fe2611fdd8361311e565b6130ee565b8281528181019085830183850287018401881015611ffe578586fd5b855b8581101561202557813561201381613221565b84529284019290840190600101612000565b5090979650505050505050565b600082601f830112612042578081fd5b81516020612052611fdd8361311e565b828152818101908583018385028701840188101561206e578586fd5b855b8581101561202557815161208381613221565b84529284019290840190600101612070565b600082601f8301126120a5578081fd5b60206120b4611fdd843561311e565b8335815281810190828501845b86358110156121ca5781358701601f196060828b03820112156120e2578788fd5b6120ec60606130ee565b878301356120f981613221565b815260408301358882015260608301356001600160401b038082111561211d578a8bfd5b938101936060858e0385011215612132578a8bfd5b61213c60606130ee565b935089850135915080821115612150578a8bfd5b61215e8d8b84880101611fbd565b84526040850135915080821115612173578a8bfd5b6121818d8b84880101611fbd565b8a8501526060850135915080821115612198578a8bfd5b506121a78c8a8387010161236e565b6040848101919091528201929092528652505092840192908401906001016120c1565b50909695505050505050565b600082601f8301126121e6578081fd5b81516121f4611fdd8261311e565b818152602080820191908501845b848110156121ca5781518701601f196060828b0382011215612222578788fd5b61222c60606130ee565b602083015161223a81613221565b81526040830151602082015260608301516001600160401b038082111561225f578a8bfd5b938101936060858e0385011215612274578a8bfd5b61227e60606130ee565b93506020850151915080821115612293578a8bfd5b6122a28d602084880101612032565b845260408501519150808211156122b7578a8bfd5b6122c68d602084880101612032565b602085015260608501519150808211156122de578a8bfd5b506122ee8c6020838701016123ba565b604084810191909152820192909252865250506020938401939190910190600101612202565b600082601f830112612324578081fd5b81356020612334611fdd8361311e565b8281528181019085830183850287018401881015612350578586fd5b855b8581101561202557813584529284019290840190600101612352565b600082601f83011261237e578081fd5b813561238c611fdd82613141565b8181528460208386010111156123a0578283fd5b816020850160208301379081016020019190915292915050565b600082601f8301126123ca578081fd5b81516123d8611fdd82613141565b8181528460208386010111156123ec578283fd5b6123fd826020830160208701613197565b949350505050565b600060c08284031215612416578081fd5b61242060c06130ee565b9050813561242d81613257565b8152602082013561243d81613247565b6020820152604082013561245081613247565b6040820152606082013561246381613247565b6060820152608082013561247681613239565b608082015260a082013561248981613239565b60a082015292915050565b600060c082840312156124a5578081fd5b6124af60c06130ee565b905081516124bc81613257565b815260208201516124cc81613247565b602082015260408201516124df81613247565b604082015260608201516124f281613247565b6060820152608082015161250581613239565b608082015260a082015161248981613239565b600060208284031215612529578081fd5b8135611e3f81613221565b600060208284031215612545578081fd5b8151611e3f81613221565b6000806000806000806000610180888a03121561256b578283fd5b61257488611fa7565b965060208801356001600160401b038082111561258f578485fd5b61259b8b838c0161236e565b975060408a01359150808211156125b0578485fd5b6125bc8b838c0161236e565b965060608a01359150808211156125d1578485fd5b6125dd8b838c01612095565b95506125ec8b60808c01612405565b94506125fb6101408b01611fa7565b93506101608a0135915080821115612611578283fd5b5061261e8a828b0161236e565b91505092959891949750929550565b6000806000806000806000610180888a031215612648578081fd5b61265188611fb2565b965060208801516001600160401b038082111561266c578283fd5b6126788b838c016123ba565b975060408a015191508082111561268d578283fd5b6126998b838c016123ba565b965060608a01519150808211156126ae578283fd5b6126ba8b838c016121d6565b95506126c98b60808c01612494565b94506126d86101408b01611fb2565b93506101608a01519150808211156126ee578283fd5b5061261e8a828b016123ba565b6000806040838503121561270d578182fd5b823561271881613221565b9150602083013561272881613221565b809150509250929050565b60008060008060808587031215612748578182fd5b843561275381613221565b9350602085013561276381613221565b9250604085013561277381613221565b9150606085013561278381613221565b939692955090935050565b600080600080600060a086880312156127a5578283fd5b85356127b081613221565b945060208601356127c081613221565b935060408601356127d081613221565b94979396509394606081013594506080013592915050565b600080600080606085870312156127fd578182fd5b843561280881613221565b9350602085013561281881613221565b925060408501356001600160401b0380821115612833578384fd5b818701915087601f830112612846578384fd5b813581811115612854578485fd5b886020828501011115612865578485fd5b95989497505060200194505050565b600080600060608486031215612888578081fd5b833561289381613221565b925060208401356128a381613221565b915060408401356128b381613221565b809150509250925092565b6000806000606084860312156128d2578081fd5b83356128dd81613221565b92506020840135915060408401356128b381613221565b60008060008060808587031215612909578182fd5b84356001600160401b038082111561291f578384fd5b61292b88838901611fbd565b95506020870135915080821115612940578384fd5b61294c88838901611fbd565b94506040870135915080821115612961578384fd5b61296d88838901611fbd565b93506060870135915080821115612982578283fd5b5061298f87828801611fbd565b91505092959194509250565b6000806000606084860312156129af578081fd5b83356001600160401b03808211156129c5578283fd5b6129d187838801611fbd565b945060208601359150808211156129e6578283fd5b6129f287838801611fbd565b93506040860135915080821115612a07578283fd5b50612a1486828701611fbd565b9150509250925092565b600080600060608486031215612a32578081fd5b83356001600160401b0380821115612a48578283fd5b612a5487838801611fbd565b94506020860135915080821115612a69578283fd5b6129f287838801612314565b60008060008060008060c08789031215612a8d578384fd5b86356001600160401b0380821115612aa3578586fd5b612aaf8a838b01611fbd565b97506020890135915080821115612ac4578586fd5b612ad08a838b01612314565b96506040890135915080821115612ae5578586fd5b612af18a838b01611fbd565b95506060890135915080821115612b06578384fd5b612b128a838b01611fbd565b94506080890135915080821115612b27578384fd5b50612b3489828a01612314565b92505060a087013590509295509295509295565b60006020808385031215612b5a578182fd5b82516001600160401b0380821115612b70578384fd5b818501915085601f830112612b83578384fd5b8151612b91611fdd8261311e565b81815284810190848601875b84811015612c0c5781518701604080601f19838f03011215612bbd578a8bfd5b612bc6816130ee565b8a830151612bd381613221565b8152908201519088821115612be6578b8cfd5b612bf48e8c848601016123ba565b818c0152865250509287019290870190600101612b9d565b50909998505050505050505050565b600060208284031215612c2c578081fd5b8151611e3f81613239565b600060208284031215612c48578081fd5b5035919050565b600060208284031215612c60578081fd5b5051919050565b6000815180845260208085019450808401835b83811015612c9f5781516001600160a01b031687529582019590820190600101612c7a565b509495945050505050565b60008151808452612cc2816020860160208601613197565b601f01601f19169290920160200192915050565b60008251612ce8818460208701613197565b9190910192915050565b6001600160a01b038881168252610180602080840182905260009290612d1a8584018c612caa565b9250604085840381870152612d2f848c612caa565b9350606086850381880152848b51808752848701915084858202880101858e01895b83811015612ddf57898303601f19018552815180518a16845288810151898501528701518784018790528051878501889052612d9060c0860182612c67565b905089820151605f1980878403016080880152612dad8383612c67565b92508a8401519350808784030160a08801525050612dcb8183612caa565b968a01969450505090870190600101612d51565b5050612e3960808b018e63ffffffff8151168252602081015161ffff8082166020850152806040840151166040850152806060840151166060850152505060808101511515608083015260a0810151151560a08301525050565b6001600160a01b038c166101408b01528981036101608b0152612e5c818c612caa565b9850505050505050505098975050505050505050565b60208082528251828201819052600091906040908185019080840286018301878501865b83811015612ede57888303603f19018552815180516001600160a01b03168452870151878401879052612ecb87850182612caa565b9588019593505090860190600101612e96565b509098975050505050505050565b6001600160a01b0385811682528416602082015260408101839052608060608201819052600090612f1f90830184612caa565b9695505050505050565b600060208252611e3f6020830184612caa565b60208082526023908201527f54696d656c6f636b236f6e6c79556e6c6f636b65643a206e6f7420756e6c6f636040820152621ad95960ea1b606082015260800190565b6020808252602e908201527f4c69717569646974794d6967726174696f6e2362617463685374616b653a206e60408201526d0dee840e6c2daca40d8cadccee8d60931b606082015260800190565b6020808252818101527f4f776e61626c653a2063616c6c6572206973206e6f7420746865206f776e6572604082015260600190565b60208082526034908201527f4c69717569646974794d6967726174696f6e236261746368427579416e6453746040820152730c2d6ca7440dcdee840e6c2daca40d8cadccee8d60631b606082015260800190565b6020808252602d908201527f436c61696d61626c65236f6e6c7953746174653a206e6f742077686974656c6960408201526c7374656420737472617465677960981b606082015260800190565b6020808252602b908201527f436c61696d61626c65236f6e6c7953746174653a206e6f74207265676973746560408201526a3932b21030b230b83a32b960a91b606082015260800190565b604051601f8201601f191681016001600160401b03811182821017156131165761311661320b565b604052919050565b60006001600160401b038211156131375761313761320b565b5060209081020190565b60006001600160401b0382111561315a5761315a61320b565b50601f01601f191660200190565b6000821982111561317b5761317b6131f5565b500190565b600082821015613192576131926131f5565b500390565b60005b838110156131b257818101518382015260200161319a565b83811115610ba75750506000910152565b6000816131d2576131d26131f5565b506000190190565b60006000198214156131ee576131ee6131f5565b5060010190565b634e487b7160e01b600052601160045260246000fd5b634e487b7160e01b600052604160045260246000fd5b6001600160a01b038116811461323657600080fd5b50565b801515811461323657600080fd5b61ffff8116811461323657600080fd5b63ffffffff8116811461323657600080fdfea264697066735822122090d66a46ad8319677ef2149f64d1e392e66e3eae7c3132d49a412aba8f2a348264736f6c63430008020033",
    "sourcePath": "/home/kyle/code/enso/liquidity-migration/contracts/LiquidityMigration.sol",
    "compiler": {
        "name": "solc",
        "version": "0.8.2+commit.661d1103"
    },
    "functionHashes": {
        "adapters(address)": "e5711ffc",
        "addAdapter(address)": "60d54d41",
        "batchBuyAndStake(address[],uint256[],address[],address[],uint256[],uint256)": "f8fd1bea",
        "batchMigrate(address[],address[],address[])": "f6202538",
        "batchMigrate(address[],address[],address[],address[])": "2afc545b",
        "batchStake(address[],uint256[],address[])": "90eb830c",
        "buyAndStake(address,address,address,uint256,uint256)": "2912f294",
        "controller()": "f77c4791",
        "createStrategy(address,address,bytes)": "41073ab6",
        "factory()": "c45a0155",
        "generic()": "87ee7d10",
        "hasStaked(address,address)": "12b32156",
        "migrate(address,address,address)": "c9d658f0",
        "migrate(address,address,address,address)": "e30ac74e",
        "modify()": "64cf33b8",
        "owner()": "8da5cb5b",
        "removeAdapter(address)": "585cd34b",
        "renounceOwnership()": "715018a6",
        "stake(address,uint256,address)": "294091cd",
        "staked(address,address)": "c6d3afc9",
        "transferOwnership(address)": "f2fde38b",
        "unlocked()": "6a5e2650",
        "updateController(address)": "06cb5b66",
        "updateGeneric(address)": "cb475dbf",
        "updateUnlock(uint256)": "fea080bc"
    },
    "gasEstimates": {
        "creation": {
            "codeDepositCost": "2591800",
            "executionCost": "infinite",
            "totalCost": "infinite"
        },
        "external": {
            "adapters(address)": "1281",
            "addAdapter(address)": "23002",
            "batchBuyAndStake(address[],uint256[],address[],address[],uint256[],uint256)": "infinite",
            "batchMigrate(address[],address[],address[])": "infinite",
            "batchMigrate(address[],address[],address[],address[])": "infinite",
            "batchStake(address[],uint256[],address[])": "infinite",
            "buyAndStake(address,address,address,uint256,uint256)": "infinite",
            "controller()": "1103",
            "createStrategy(address,address,bytes)": "infinite",
            "factory()": "1104",
            "generic()": "1170",
            "hasStaked(address,address)": "infinite",
            "migrate(address,address,address)": "infinite",
            "migrate(address,address,address,address)": "infinite",
            "modify()": "1062",
            "owner()": "1054",
            "removeAdapter(address)": "22971",
            "renounceOwnership()": "24276",
            "stake(address,uint256,address)": "infinite",
            "staked(address,address)": "infinite",
            "transferOwnership(address)": "24483",
            "unlocked()": "1084",
            "updateController(address)": "22882",
            "updateGeneric(address)": "22991",
            "updateUnlock(uint256)": "21996"
        },
        "internal": {
            "_buyAndStake(address,uint256,address,address,uint256,uint256)": "infinite",
            "_createStrategy(bytes memory)": "infinite",
            "_migrate(address,address,address,contract IStrategy)": "infinite",
            "_stake(address,uint256,address)": "infinite",
            "_validateItems(address,address,struct StrategyTypes.StrategyItem memory[] memory)": "infinite"
        }
    }
}